:100000000C9434000C9451000C940C010C9451008D
:100010000C9451000C9451000C9451000C9451001C
:100020000C9451000C9451000C9451000C9451000C
:100030000C9451000C9451000C9451000C945100FC
:100040000C9451000C9451000C9451000C945100EC
:100050000C9451000C9451000C9451000C945100DC
:100060000C9451000C94510011241FBECFEFD4E02A
:10007000DEBFCDBF11E0A0E0B1E0E0EAF2E002C0F7
:1000800005900D92A030B107D9F711E0A0E0B1E0E2
:1000900001C01D92A230B107E1F70E9416010C9435
:1000A0004E010C94000082E085B980E29EE4019745
:1000B000F1F74B9902C03BE201C030E04A9902C01F
:1000C00029E501C020E0499B2DE4489B24E481E020
:1000D00085B980E29EE40197F1F74B9B3DE24A9B94
:1000E00023E7499B2DE6489B28E683E085B929351F
:1000F00081F43B3231F480910001909101010A9624
:1001000011C03D3239F580910001909101010A97AB
:1001100009C02D34F9F43B3271F4809100019091C3
:100120000101019664E670E00E94270190930101AD
:100130008093000108953D3269F48091000190910F
:100140000101019764E670E00E942701909301018C
:100150008093000108951DBA1BB808958FE48BB9F0
:100160001DBA0895282F332727FD30958BE090E0A6
:10017000821B930B6AE070E00E943B011BB8992739
:1001800087FD909583FD5F9A5D9A1BB882FD5F9A0B
:100190005D9A1BB881FD5F9A5D9A1BB880FD5F9ADE
:1001A0005D9A08950F931F938C016AE070E00E949E
:1001B00027010E94B200C8016AE070E00E94270196
:1001C000862F0E94B2001F910F91089593E094B979
:1001D00081E387B91AB88AB1806E8AB995B918B81F
:1001E0008FE48BB91092690008950E9453001DBAE4
:1001F0001BB880910001909101010E94D2008FE410
:100200008BB91DBA88E893E120E931E0F901319713
:10021000F1F70197D9F708951F920F920FB60F9239
:1002200011240F900FBE0F901F90189593E094B972
:1002300081E387B91AB88AB1806E8AB995B918B8BE
:100240008FE48BB9109269000E94F500FDCFAA1BC4
:10025000BB1B51E107C0AA1FBB1FA617B70710F0B1
:10026000A61BB70B881F991F5A95A9F780959095E3
:10027000BC01CD01089597FB092E07260AD077FD12
:1002800004D0E5DF06D000201AF4709561957F4F09
:100290000895F6F7909581959F4F0895F894FFCFB4
:00000001FF
