:100000000C9434000C9451000C9451000C94510049
:100010000C9451000C9451000C9451000C9451001C
:100020000C9451000C9451000C9451000C9451000C
:100030000C9451000C9451000C9451000C945100FC
:100040000C9451000C9451000C9451000C945100EC
:100050000C9451000C9451000C9451000C945100DC
:100060000C9451000C94510011241FBECFEFD4E02A
:10007000DEBFCDBF11E0A0E0B1E0EEE1F8E002C0EC
:1000800005900D92A030B107D9F711E0A0E0B1E0E2
:1000900001C01D92AA31B107E1F70E94CF000C9474
:1000A0000D040C94000040980895409A08951F9301
:1000B000CF93DF930E94A602409114015091150145
:1000C0006091040170910501CA01880F991F9A017E
:1000D000E3E0220F331FEA95E1F7820F931F860FAB
:1000E000971F079730F040980E941B010E94DD0384
:1000F00036C0452B99F5672B89F5809112019091B7
:100100001301892B59F580910E0190910F01892BD4
:1001100029F5409810E0C0E9D1E00E949503812FB5
:100120000E949903812F0E949903812F0E949903B5
:10013000812F0E949903812F0E949903812F0E9491
:1001400099030E94970380E197E2FE013197F1F74E
:100150000197D9F71F5F1A3001F701C0409A80EA72
:100160009FE020E931E0F9013197F1F70197D9F7E4
:10017000DF91CF911F9108951AB88AB187B987B1DD
:1001800084B91BB88BB188B988B185B9389A4098C1
:100190000E94D4000E940E010E94900308950E94C4
:1001A000BC000E945700FDCF87B18F7C87B988B112
:1001B000806388B982E08093B80083E08093B900BF
:1001C00084E08093BC00089584EA8093BC00809111
:1001D000BC0087FFFCCF089584E98093BC0008959C
:1001E0008093BB0084E88093BC008091BC0087FFB3
:1001F000FCCF089584EC8093BC008091BC0087FF05
:10020000FCCF8091BB00089584E88093BC0080916E
:10021000BC0087FFFCCF8091BB00089584B1836050
:1002200084B98AB1807F8AB985B1836085B98BB181
:100230008F608BB908952898299A80E29EE40197EF
:10024000F1F74B9902C04BE201C040E04A9902C06D
:1002500029E501C020E0499B2DE4489B24E4289A2D
:10026000299880E29EE40197F1F74B9B4DE24A9B6F
:1002700023E7499B2DE6489B28E685B1836085B935
:10028000293599F02A353CF4243409F481C02D3401
:1002900009F055C13FC02D3609F4E8C0233709F4F1
:1002A0001AC1283609F04BC1ACC080910A01909167
:1002B0000B019C01F3E0220F331FFA95E1F7880F41
:1002C000991F280F391F8091020190910301280F77
:1002D000391F4B3219F4C901019604C04D3239F46B
:1002E000C901019764E670E00E94E6039C01C90120
:1002F0006AE070E00E94E60370930B0160930A01CC
:10030000C9016AE070E00E94E603909303018093C4
:10031000020115C180911601909117019C0173E0B3
:10032000220F331F7A95E1F7880F991F280F391F85
:100330008091100190911101280F391F4B3241F427
:10034000C90101966DE070E00E94E6039C010DC0BA
:100350004D3259F4C90101976DE070E00E94E60347
:100360009C01009711F42CE030E0C9016AE070E0D4
:100370000E94E6037093170160931601C9016AE0B9
:1003800070E00E94E6039093110180931001D7C0A2
:1003900080911801909119019C0153E0220F331FA5
:1003A0005A95E1F7880F991F280F391F8091000196
:1003B00090910101280F391F4B3229F42F5F3F4FD5
:1003C0002F7130700BC04D3249F4215030402F71E5
:1003D00030702115310511F42FE130E0C9016AE0D8
:1003E00070E00E94E6037093190160931801C9013F
:1003F0006AE070E00E94E60390930101809300019F
:100400009EC080911401909115019C01A3E0220FE0
:10041000331FAA95E1F7880F991F280F391F809184
:10042000040190910501280F391F4B3219F4C901BD
:10043000019604C04D3239F4C901019768E170E0BA
:100440000E94E6039C01C9016AE070E00E94E60395
:100450007093150160931401C9016AE070E00E9475
:10046000E603909305018093040169C08091120115
:10047000909113019C01E3E0220F331FEA95E1F70D
:10048000880F991F280F391F80910E0190910F013D
:10049000280F391F4B3219F4C901019604C04D329F
:1004A00039F4C90101976CE370E00E94E6039C01F6
:1004B000C9016AE070E00E94E60370931301609343
:1004C0001201C9016AE070E00E94E60390930F01F7
:1004D00080930E0134C080910801909109019C0124
:1004E00063E0220F331F6A95E1F7880F991F280FE9
:1004F000391F8091060190910701280F391F4B3257
:1005000019F4C901019604C04D3239F4C9010197AB
:100510006CE370E00E94E6039C01C9016AE070E0B0
:100520000E94E6037093090160930801C9016AE023
:1005300070E00E94E60390930701809306014B321E
:1005400011F04D3211F40E944B0308950E94E40013
:1005500080ED0E94F00080E00E94F0000E94E40024
:1005600081ED0E94F0000E94FA00992787FD909586
:100570009C0120773070F4E035952795FA95E1F7E6
:1005800030930901209308018F70907090930701B8
:10059000809306010E94FA00992787FD90959C019F
:1005A000207F3070E4E035952795EA95E1F73093A8
:1005B0001301209312018F70907090930F0180931C
:1005C0000E010E94FA00992787FD90959C012073E7
:1005D000307074E0359527957A95E1F730931501E1
:1005E000209314018F709070909305018093040103
:1005F0000E94FA00992787FD9095877090709093DC
:100600000D0180930C010E94FA00992787FD9095B7
:100610009C01207F307064E0359527956A95E1F75D
:1006200030931901209318018F70907090930101FD
:10063000809300010E94FA00992787FD90959C0104
:10064000207F307054E0359527955A95E1F7309327
:100650001701209316018F70907090931101809371
:1006600010010E940401992787FD90959C01207F2D
:10067000307044E0359527954A95E1F730930B01AA
:1006800020930A018F709070909303018093020170
:100690000E94EC0008950E94E40080ED0E94F000AA
:1006A00080E00E94F000809108018295807F909107
:1006B0000601892B0E94F000809112018295807FB3
:1006C00090910E01892B0E94F00080911401829577
:1006D000807F90910401892B0E94F00080910C0191
:1006E0000E94F000809118018295807F9091000116
:1006F000892B0E94F000809116018295807F909155
:100700001001892B0E94F00080910A018295807F60
:1007100090910201892B0E94F0000E94EC00089544
:100720008AB1806E8AB95E9A08955E9808955E9A3D
:100730000895282F332727FD30958BE090E0821B0A
:10074000930B6AE070E00E94FA039BB19F759BB91E
:10075000282F332727FD309523FD5F9A5D9A8BB1B3
:100760008F758BB922FD5F9A5D9A8BB18F758BB9AE
:1007700021FD5F9A5D9A8BB18F758BB920FD5F9AD1
:100780005D9A0895809106010E9499038091080165
:100790000E949903089580910E010E94990380910F
:1007A00012010E9499030895809104010E94990307
:1007B000809114010E94990308955E980E94C203DB
:1007C0000E94CB030E94D4035E9A0895AA1BBB1B10
:1007D00051E107C0AA1FBB1FA617B70710F0A61B41
:1007E000B70B881F991F5A95A9F780959095BC0162
:1007F000CD01089597FB092E07260AD077FD04D076
:10080000E5DF06D000201AF4709561957F4F0895BA
:0E081000F6F7909581959F4F0895F894FFCFCD
:00000001FF
