:100000000C9434000C9451000C9451000C94510049
:100010000C9451000C9451000C9451000C9451001C
:100020000C9451000C9451000C9451000C9451000C
:100030000C9451000C9451000C9451000C945100FC
:100040000C94C1000C9451000C9451000C9451007C
:100050000C9451000C9451000C9451000C945100DC
:100060000C9451000C94510011241FBECFEFD4E02A
:10007000DEBFCDBF11E0A0E0B1E0E2EDF3E002C0F1
:1000800005900D92A030B107D9F711E0A0E0B1E0E2
:1000900001C01D92A430B107E1F70E94B1000C9499
:1000A000E7010C9400001BB8089580E48BB9089513
:1000B000282F332727FD30958BE090E0821B930B90
:1000C0006AE070E00E94B2011BB8992787FD909505
:1000D00083FD5F9A5D9A1BB882FD5F9A5D9A1BB89B
:1000E00081FD5F9A5D9A1BB880FD5F9A5D9A0895C5
:1000F0000F931F938C016AE070E00E949E010E94A2
:100100005800C8016AE070E00E949E01862F0E949C
:1001100058001F910F91089583E084B981E387B956
:100120001AB88AB1806E8AB918B880E48BB908957C
:100130001F93CF93DF93C0E0D0E010E41BB8CE0153
:100140000E9478001BB96CE271E080E090E00E94B0
:10015000FE002196C436D10589F7DF91CF911F911A
:1001600008950E94540183E084B981E387B91AB8E5
:100170008AB1806E8AB918B880E48BB90E94980061
:10018000FDCF1F920F920FB60F9211248F939F9362
:10019000AF93BF938091000190910101A091020162
:1001A000B09103010196A11DB11D809300019093B0
:1001B0000101A0930201B0930301BF91AF919F9100
:1001C0008F910F900FBE0F901F90189560910001B6
:1001D00070910101809102019091030127E0660F67
:1001E000771F881F991F2A95D1F72DE730E040E04F
:1001F00050E00E94C501CA01B9010895AF92BF92B3
:10020000CF92DF92EF92FF920F931F935B016C01ED
:1002100060910001709101018091020190910301B0
:1002200047E0660F771F881F991F4A95D1F72DE782
:1002300030E040E050E00E94C50179018A01609100
:10024000000170910101809102019091030137E05A
:10025000660F771F881F991F3A95D1F72DE730E079
:1002600040E050E00E94C5012E193F09400B510BA0
:100270002A153B054C055D0510F31F910F91FF906A
:10028000EF90DF90CF90BF90AF900895019759F015
:10029000FC01EE0FFF1FEE0FFF1F32978FB7F89490
:1002A0003197F1F78FBF0895789410920001109262
:1002B0000101109202011092030184B5826084BD95
:1002C00084B5816084BD85B5826085BD85B581605A
:1002D00085BDEEE6F0E0808181608083E1E8F0E0BA
:1002E000808182608083808181608083E0E8F0E0AB
:1002F000808181608083E1EBF0E080818460808395
:10030000E0EBF0E0808181608083ECE7F0E08081C9
:100310008F778083808180648083EAE7F0E080814A
:10032000846080838081826080838081816080831B
:100330008081806880831092C1000895AA1BBB1B36
:1003400051E107C0AA1FBB1FA617B70710F0A61BD5
:10035000B70B881F991F5A95A9F780959095BC01F6
:10036000CD01089597FB092E07260AD077FD04D00A
:10037000E5DF06D000201AF4709561957F4F08954F
:10038000F6F7909581959F4F0895A1E21A2EAA1B2A
:10039000BB1BFD010DC0AA1FBB1FEE1FFF1FA21735
:1003A000B307E407F50720F0A21BB30BE40BF50B32
:1003B000661F771F881F991F1A9469F760957095BB
:1003C000809590959B01AC01BD01CF010895F894F3
:0203D000FFCF5D
:00000001FF
