:100000000C9434000C9451000C945F040C94510037
:100010000C9451000C9451000C9451000C9451001C
:100020000C9451000C9451000C9451000C9451000C
:100030000C9451000C9451000C9451000C945100FC
:100040000C9451000C9451000C9451000C945100EC
:100050000C9451000C9451000C9451000C945100DC
:100060000C9451000C94510011241FBECFEFD4E02A
:10007000DEBFCDBF11E0A0E0B1E0E8E5F9E002C0ED
:1000800005900D92A030B107D9F711E0A0E0B1E0E2
:1000900001C01D92AA31B107E1F70E9469040C94D6
:1000A000AA040C94000084EA8093BC008091BC00F8
:1000B00087FFFCCF80ED8093BB0084E88093BC0079
:1000C0008091BC0087FFFCCF1092BB0084E8809336
:1000D000BC008091BC0087FFFCCF80910801829515
:1000E000807F90910601892B8093BB0084E88093E8
:1000F000BC008091BC0087FFFCCF809112018295EB
:10010000807F90910E01892B8093BB0084E88093BF
:10011000BC008091BC0087FFFCCF809114018295C8
:10012000807F90910401892B8093BB0084E88093A9
:10013000BC008091BC0087FFFCCF80910C018093B4
:10014000BB0084E88093BC008091BC0087FFFCCF9B
:10015000809118018295807F90910001892B809376
:10016000BB0084E88093BC008091BC0087FFFCCF7B
:10017000809116018295807F90911001892B809348
:10018000BB0084E88093BC008091BC0087FFFCCF5B
:1001900080910A018295807F90910201892B809342
:1001A000BB0084E88093BC008091BC0087FFFCCF3B
:1001B00084E98093BC00089582E085B980E29EE4E2
:1001C0000197F1F74B9902C03BE201C030E04A9938
:1001D00002C029E501C020E0499B2DE4489B24E4AE
:1001E00081E085B980E29EE40197F1F74B9B3DE207
:1001F0004A9B23E7499B2DE6489B28E683E085B987
:10020000293599F02A353CF4243409F47CC02D3486
:1002100009F070C142C02D3609F4FDC0233709F43E
:1002200032C1283609F066C1BEC03B3299F48091D4
:100230000201909103018930910551F4109203015C
:100240001092020180910A0190910B01019616C053
:1002500001961EC03D3209F04FC18091020190917C
:1002600003010097A1F489E090E09093030180934B
:10027000020180910A0190910B0101976AE070E000
:100280000E94830490930B0180930A0137C1019768
:10029000909303018093020131C13B3299F4809124
:1002A0001001909111018930910551F410921101C2
:1002B000109210018091160190911701019616C0BD
:1002C00001961CC03D3209F017C180911001909138
:1002D0001101009791F489E090E0909311018093CF
:1002E0001001809116019091170101978170907013
:1002F000909317018093160101C10197909311010A
:1003000080931001FBC03B3201F580910C0190916C
:100310000D01019667E070E00E94830490930D0147
:1003200080930C0180910001909101018930910529
:1003300051F41092010110920001809118019091E6
:100340001901019623C0019629C03D3209F0D4C09D
:1003500080910C0190910D01019767E070E00E947F
:10036000830490930D0180930C0180910001909182
:100370000101009791F489E090E09093010180934E
:10038000000180911801909119010197837090707C
:100390009093190180931801B1C0019790930101C6
:1003A00080930001ABC03B3299F48091040190919D
:1003B00005018930910551F4109205011092040154
:1003C0008091140190911501019616C001961EC0EE
:1003D0003D3209F091C08091040190910501009790
:1003E000A1F489E090E0909305018093040180914D
:1003F000140190911501019763E070E00E9483045D
:10040000909315018093140179C001979093050191
:100410008093040173C03B3299F480910E01909156
:100420000F018930910551F410920F0110920E01C5
:100430008091120190911301019616C001961EC081
:100440003D3209F059C080910E0190910F01009743
:10045000A1F489E090E090930F0180930E018091C8
:10046000120190911301019766E070E00E948304ED
:10047000909313018093120141C0019790930F0153
:1004800080930E013BC03B3299F48091060190911C
:1004900007018930910551F410920701109206016D
:1004A0008091080190910901019615C001961DC027
:1004B0003D3211F580910601909107010097A1F45A
:1004C00089E090E0909307018093060180910801F4
:1004D00090910901019766E070E00E948304909377
:1004E0000901809308010AC0019790930701809346
:1004F000060104C03B3211F03D3211F40E9453005A
:1005000008952F923F924F925F926F927F928F92B7
:100510009F92AF92BF92CF92DF92EF92FF920F9392
:100520001F93CF93DF9384EA8093BC008091BC003B
:1005300087FFFCCF80ED8093BB0084E88093BC00F4
:100540008091BC0087FFFCCF1092BB0084E88093B1
:10055000BC008091BC0087FFFCCF84EA8093BC0084
:100560008091BC0087FFFCCF81ED8093BB0084E8C5
:100570008093BC008091BC0087FFFCCFC09002013B
:10058000D090030140910A0150910B01409010015D
:1005900050901101C0911601D09117016090000197
:1005A00070900101A0911801B0911901E0900C0127
:1005B000F0900D012090040130900501009114018C
:1005C0001091150180900E0190900F01E0911201A1
:1005D000F0911301A0900601B0900701609108010D
:1005E0007091090120E030E02530310511F484E8F4
:1005F00001C084EC8093BC008091BC0087FFFCCFDD
:100600008091BB002330310509F450C024303105FE
:1006100050F42130310529F1992787FD909522303A
:10062000310598F50DC02530310509F45BC0253042
:10063000310508F443C02630310509F07AC066C0A0
:10064000BC0160777070689413F87595679516947F
:10065000E1F70F2EFFE0AF2EBB24F02DA822B92228
:1006600068C0992787FD9095FC01E07FF070689441
:1006700013F8F595E7951694E1F70F2EFFE08F2E0E
:100680009924F02D8822992254C08C010073107097
:10069000689413F8159507951694E1F70F2EFFE06F
:1006A0002F2E3324F02D2822392243C0E82EFF2498
:1006B000E7FCF09487E0E822FF243BC0992787FD00
:1006C0009095DC01A07FB070689413F8B595A7955C
:1006D0001694E1F70F2EFFE06F2E7724F02D68229D
:1006E000792227C0992787FD9095EC01C07FD070B3
:1006F000689413F8D595C7951694E1F70F2EFFE08F
:100700004F2E5524F02D4822592213C0992787FDDA
:100710009095AC01407F5070689413F855954795BB
:100720001694E1F70F2EFFE0CF2EDD24F02DC82226
:10073000D9222F5F3F4F2730310509F055CFD09296
:100740000301C092020150930B0140930A015092A1
:10075000110140921001D0931701C09316017092BD
:10076000010160920001B0931901A0931801F09269
:100770000D01E0920C0130920501209204011093CA
:1007800015010093140190920F0180920E01F093D5
:100790001301E0931201B0920701A0920601709339
:1007A00009016093080184E98093BC00DF91CF9137
:1007B0001F910F91FF90EF90DF90CF90BF90AF907F
:1007C0009F908F907F906F905F904F903F902F9071
:1007D00008951DBA1BB808958FE48BB91DBA08950A
:1007E000282F332727FD30958BE090E0821B930B59
:1007F0006AE070E00E9497041BB8992787FD9095E6
:1008000083FD5F9A5D9A1BB882FD5F9A5D9A1BB863
:1008100081FD5F9A5D9A1BB880FD5F9A5D9A08958D
:10082000809106010E94F003809108010E94F0036C
:10083000089580910E010E94F003809112010E94A0
:10084000F0030895809104010E94F0038091140147
:100850000E94F00308951DBA1BB80E9410040E9464
:1008600019040E9422048FE48BB91DBA089593E005
:1008700094B981E087B91AB88AB1806E8AB995B9FE
:1008800080E388B98FE48BB91092690082E080938D
:10089000B80084E08093BC009093B90008950E9452
:1008A000DC000E9481020E942B0480EA9FE020E984
:1008B00031E0F9013197F1F70197D9F708951F92C7
:1008C0000F920FB60F9211240F900FBE0F901F9032
:1008D000189593E094B981E087B91AB88AB1806E0F
:1008E0008AB995B980E388B98FE48BB91092690011
:1008F00082E08093B80084E08093BC009093B900BC
:100900000E944F04FDCFAA1BBB1B51E107C0AA1FC9
:10091000BB1FA617B70710F0A61BB70B881F991FA0
:100920005A95A9F780959095BC01CD01089597FB44
:10093000092E07260AD077FD04D0E5DF06D0002077
:100940001AF4709561957F4F0895F6F7909581950B
:080950009F4F0895F894FFCFBA
:00000001FF
